{
    "contractName": "sendMoneyExample",
    "abi": [
        {
            "inputs": [],
            "name": "reciveMoney",
            "outputs": [],
            "stateMutability": "payable",
            "type": "function"
        }
    ],
    "bytecode": "6080604052348015600f57600080fd5b50605980601d6000396000f3fe608060405260043610601c5760003560e01c80633afa8ebd146021575b600080fd5b00fea2646970667358221220c37f8dc68fd93d41102a574b0f75c30179121fd5e0454be8b9bc99e90ac8062b64736f6c63430008090033",
    "deployedBytecode": "608060405260043610601c5760003560e01c80633afa8ebd146021575b600080fd5b00fea2646970667358221220c37f8dc68fd93d41102a574b0f75c30179121fd5e0454be8b9bc99e90ac8062b64736f6c63430008090033",
    "sourcePath": "c:/Users/nico/dev/solidty-bootcamp/SendMoneyExample.sol",
    "compiler": {
        "name": "solc",
        "version": "0.8.9+commit.e5eed63a"
    },
    "functionHashes": {
        "reciveMoney()": "3afa8ebd"
    },
    "gasEstimates": {
        "creation": {
            "codeDepositCost": "17800",
            "executionCost": "69",
            "totalCost": "17869"
        },
        "external": {
            "reciveMoney()": "74"
        }
    }
}