{
    "contractName": "WorkingWithVariable",
    "abi": [
        {
            "inputs": [],
            "name": "decrementUint",
            "outputs": [],
            "stateMutability": "nonpayable",
            "type": "function"
        },
        {
            "inputs": [],
            "name": "getBalanceAddress",
            "outputs": [
                {
                    "internalType": "uint256",
                    "name": "",
                    "type": "uint256"
                }
            ],
            "stateMutability": "view",
            "type": "function"
        },
        {
            "inputs": [],
            "name": "incrementUint",
            "outputs": [],
            "stateMutability": "nonpayable",
            "type": "function"
        },
        {
            "inputs": [],
            "name": "myAddress",
            "outputs": [
                {
                    "internalType": "address",
                    "name": "",
                    "type": "address"
                }
            ],
            "stateMutability": "view",
            "type": "function"
        },
        {
            "inputs": [],
            "name": "myBool",
            "outputs": [
                {
                    "internalType": "bool",
                    "name": "",
                    "type": "bool"
                }
            ],
            "stateMutability": "view",
            "type": "function"
        },
        {
            "inputs": [],
            "name": "myString",
            "outputs": [
                {
                    "internalType": "string",
                    "name": "",
                    "type": "string"
                }
            ],
            "stateMutability": "view",
            "type": "function"
        },
        {
            "inputs": [],
            "name": "myUint",
            "outputs": [
                {
                    "internalType": "uint256",
                    "name": "",
                    "type": "uint256"
                }
            ],
            "stateMutability": "view",
            "type": "function"
        },
        {
            "inputs": [],
            "name": "myUint8",
            "outputs": [
                {
                    "internalType": "uint8",
                    "name": "",
                    "type": "uint8"
                }
            ],
            "stateMutability": "view",
            "type": "function"
        },
        {
            "inputs": [
                {
                    "internalType": "address",
                    "name": "_address",
                    "type": "address"
                }
            ],
            "name": "setAddress",
            "outputs": [],
            "stateMutability": "nonpayable",
            "type": "function"
        },
        {
            "inputs": [
                {
                    "internalType": "bool",
                    "name": "_myBool",
                    "type": "bool"
                }
            ],
            "name": "setMyBool",
            "outputs": [],
            "stateMutability": "nonpayable",
            "type": "function"
        },
        {
            "inputs": [
                {
                    "internalType": "string",
                    "name": "_myString",
                    "type": "string"
                }
            ],
            "name": "setMyString",
            "outputs": [],
            "stateMutability": "nonpayable",
            "type": "function"
        },
        {
            "inputs": [
                {
                    "internalType": "uint256",
                    "name": "_myUint",
                    "type": "uint256"
                }
            ],
            "name": "setMyUint",
            "outputs": [],
            "stateMutability": "nonpayable",
            "type": "function"
        }
    ],
    "bytecode": "608060405234801561001057600080fd5b506105d7806100206000396000f3fe608060405234801561001057600080fd5b50600436106100b45760003560e01c8063da50eaee11610071578063da50eaee14610155578063df615ade1461015d578063e2a4b2af14610175578063e30081a014610199578063e492fd84146101d1578063eb1b30d9146101e457600080fd5b806306540f7e146100b957806314bf43bd146100d557806326b85ee1146100df578063492bfa18146101105780636deecdbe146101255780638218056814610142575b600080fd5b6100c260005481565b6040519081526020015b60405180910390f35b6100dd610205565b005b6001546100f8906201000090046001600160a01b031681565b6040516001600160a01b0390911681526020016100cc565b610118610237565b6040516100cc919061038c565b6001546101329060ff1681565b60405190151581526020016100cc565b6100dd6101503660046103f7565b6102c5565b6100dd6102dc565b6001546201000090046001600160a01b0316316100c2565b60015461018790610100900460ff1681565b60405160ff90911681526020016100cc565b6100dd6101a73660046104a8565b600180546001600160a01b03909216620100000262010000600160b01b0319909216919091179055565b6100dd6101df3660046104d8565b600055565b6100dd6101f23660046104f1565b6001805460ff1916911515919091179055565b60018054610100900460ff16908061021c83610529565b91906101000a81548160ff021916908360ff16021790555050565b6002805461024490610549565b80601f016020809104026020016040519081016040528092919081815260200182805461027090610549565b80156102bd5780601f10610292576101008083540402835291602001916102bd565b820191906000526020600020905b8154815290600101906020018083116102a057829003601f168201915b505050505081565b80516102d89060029060208401906102f3565b5050565b60018054610100900460ff16908061021c83610584565b8280546102ff90610549565b90600052602060002090601f0160209004810192826103215760008555610367565b82601f1061033a57805160ff1916838001178555610367565b82800160010185558215610367579182015b8281111561036757825182559160200191906001019061034c565b50610373929150610377565b5090565b5b808211156103735760008155600101610378565b600060208083528351808285015260005b818110156103b95785810183015185820160400152820161039d565b818111156103cb576000604083870101525b50601f01601f1916929092016040019392505050565b634e487b7160e01b600052604160045260246000fd5b60006020828403121561040957600080fd5b813567ffffffffffffffff8082111561042157600080fd5b818401915084601f83011261043557600080fd5b813581811115610447576104476103e1565b604051601f8201601f19908116603f0116810190838211818310171561046f5761046f6103e1565b8160405282815287602084870101111561048857600080fd5b826020860160208301376000928101602001929092525095945050505050565b6000602082840312156104ba57600080fd5b81356001600160a01b03811681146104d157600080fd5b9392505050565b6000602082840312156104ea57600080fd5b5035919050565b60006020828403121561050357600080fd5b813580151581146104d157600080fd5b634e487b7160e01b600052601160045260246000fd5b600060ff821660ff81141561054057610540610513565b60010192915050565b600181811c9082168061055d57607f821691505b6020821081141561057e57634e487b7160e01b600052602260045260246000fd5b50919050565b600060ff82168061059757610597610513565b600019019291505056fea2646970667358221220a959145624fd127e14ae2d1cfd7677b8e46c4e68f005799306b26b53efcebea364736f6c63430008090033",
    "sourcePath": "c:/Users/nico/dev/solidty-bootcamp/Variables.sol",
    "compiler": {
        "name": "solc",
        "version": "0.8.9+commit.e5eed63a"
    },
    "functionHashes": {
        "decrementUint()": "da50eaee",
        "getBalanceAddress()": "df615ade",
        "incrementUint()": "14bf43bd",
        "myAddress()": "26b85ee1",
        "myBool()": "6deecdbe",
        "myString()": "492bfa18",
        "myUint()": "06540f7e",
        "myUint8()": "e2a4b2af",
        "setAddress(address)": "e30081a0",
        "setMyBool(bool)": "eb1b30d9",
        "setMyString(string)": "82180568",
        "setMyUint(uint256)": "e492fd84"
    },
    "gasEstimates": {
        "creation": {
            "codeDepositCost": "299000",
            "executionCost": "337",
            "totalCost": "299337"
        },
        "external": {
            "decrementUint()": "26664",
            "getBalanceAddress()": "4932",
            "incrementUint()": "26693",
            "myAddress()": "2393",
            "myBool()": "2399",
            "myString()": "infinite",
            "myUint()": "2285",
            "myUint8()": "2368",
            "setAddress(address)": "24601",
            "setMyBool(bool)": "24592",
            "setMyString(string)": "infinite",
            "setMyUint(uint256)": "22400"
        }
    }
}